:1000000072C000009EC000009CC000009AC00000AA
:1000100098C0000096C0000094C0000092C000008C
:1000200090C000008EC000008CC000008AC000009C
:1000300088C0000086C0000084C0000082C00000AC
:1000400080C000007EC000007CC000007AC00000BC
:1000500078C0000076C0000074C00000E2C3000059
:1000600070C0000051C4000026C400006AC0000037
:1000700068C0000066C0000064C0000062C00000EC
:1000800060C000005EC000005CC000005AC00000FC
:1000900058C0000056C0000054C0000052C000000C
:1000A00050C000004EC000004CC000004AC000001C
:1000B00048C0000046C0000044C0000042C000002C
:1000C00040C000003EC000003CC000003AC000003C
:1000D00038C0000036C0000034C0000032C000004C
:1000E00030C00000BA0411241FBECFEFD1E2DEBF42
:1000F000CDBF00E00CBF14E0A0E0B2E0E4EDFFE013
:1001000000E00BBF02C007900D92A83EB107D9F7DF
:1001100025E0A8EEB4E001C01D92A73AB207E1F7CE
:1001200010E0C3E7D0E000E005C021970109802F6F
:10013000FE0115D6C237D10780E00807B1F758D4C1
:1001400047C75ECFCF92DF92EF92FF920F931F933C
:10015000CF93DF936C017A018B01C0E0D0E0CE1524
:10016000DF0589F0D8016D918D01D601ED91FC91EB
:100170000190F081E02DC6011995892B11F47E01C3
:1001800002C02196ECCFC701DF91CF911F910F9153
:10019000FF90EF90DF90CF900895FC01918D828DBC
:1001A000981761F0828DDF01A80FB11D5D968C91CB
:1001B000928D9F5F9F73928F90E008958FEF9FEFD6
:1001C0000895FC01918D828D981731F0828DE80F92
:1001D000F11D858D90E008958FEF9FEF0895FC014C
:1001E000918D228D892F90E0805C9F4F821B910919
:1001F0008F73992708958BEF94E0F1DF21E0892B2D
:1002000009F420E0822F0895FC01848DDF01A80FFE
:10021000B11DA35ABF4F2C91848D90E001968F732E
:100220009927848FA689B7892C93A089B1898C914D
:1002300080648C93938D848D981306C00288F38913
:10024000E02D80818F7D80830895EF92FF920F9340
:100250001F93CF93DF93EC0181E0888F9B8D8C8D72
:10026000981305C0E889F989808185FD23C0F62EA1
:100270000B8D10E00F5F1F4F0F731127E02E8C8D39
:10028000E8120BC00FB607FCFACFE889F989808124
:1002900085FFF5CFCE01B8DFF2CF8B8DFE01E80FE1
:1002A000F11DE35AFF4FF0820B8FEA89FB898081B1
:1002B000806207C0EE89FF896083E889F9898081BF
:1002C0008064808381E090E0DF91CF911F910F9156
:1002D000FF90EF900895CF93DF93EC01888D8823F2
:1002E000C1F0EA89FB89808185FD05C0A889B989AB
:1002F0008C9186FD0EC00FB607FCF5CF808185FF7F
:10030000F2CFA889B9898C9185FFEDCFCE017CDF32
:10031000E8CFDF91CF91089580E090E0892B19F02C
:100320006ADF811125C080E090E0892B41F080E0F8
:1003300090E0892B21F00E94000081111CC080E018
:1003400090E0892B41F080E090E0892B21F00E9421
:100350000000811113C080E090E0892BA1F080E0C3
:1003600090E0892B81F00E94000081110AC008955D
:100370000E940000D8CF0E940000E1CF0E94000040
:10038000EACF0C9400000895863308F086539091CC
:100390007B00282F2870977F922B90937B0087708B
:1003A000806480937C0080917A00806480937A00DE
:1003B00080917A0086FDFCCF8091780020917900B1
:1003C00090E0922B0895009761F0FC0101900020CD
:1003D000E9F73197AF01481B590BBC018BEF94E053
:1003E000B1CE80E090E00895CF93DF93ECDFEC0195
:1003F00084E392E0E8DF8C0F9D1FDF91CF91089599
:100400008F929F92AF92BF920F931F93CF93DF93E0
:10041000CDB7DEB7A1970FB6F894DEBF0FBECDBF44
:1004200019A2423008F44AE08E010F5D1F4F842E5E
:10043000912CA12CB12CA50194016FD4E62FB90108
:10044000CA0101501109EA3014F4E05D01C0E95C11
:10045000D801EC93232B242B252B69F7C801B3DF9C
:10046000A1960FB6F894DEBF0FBECDBFDF91CF913E
:100470001F910F91BF90AF909F908F900895CF9252
:10048000DF92EF92FF92CF93DF936C01990FEE080A
:10049000FF08F7FE19C0E091FB04F091FC04019005
:1004A000F081E02D6DE28BEF94E01995EC01662769
:1004B0007727CB016C197D098E099F094AE0A0DFDF
:1004C0007C01EC0EFD1E05C04AE0C701B60198DFB5
:1004D0007C0184E392E077DF8E0D9F1DDF91CF9149
:1004E000FF90EF90DF90CF9008956ED58091EE044D
:1004F0009091EF04892B61F482E090E038D42CE1F4
:1005000032E0FC01318320839093EF048093EE046A
:100510008091EE049091EF0408958091F004909101
:10052000F104892B61F482E090E021D422E232E0F0
:10053000FC01318320839093F1048093F004809137
:10054000F0049091F10408958091EC049091ED04F1
:10055000892B61F482E090E00AD426E132E0FC01CC
:10056000318320839093ED048093EC048091EC041C
:100570009091ED0408958091EA049091EB04892B09
:1005800061F482E090E0F3D320E132E0FC013183BA
:1005900020839093EB048093EA048091EA04909185
:1005A000EB040895CF93DF93FC0127813085232B43
:1005B00041F0C185D285DFDFC817D90711F081E08E
:1005C00001C080E0DF91CF910895CF93DF93645114
:1005D0007109653D734098F444515109453D5340BC
:1005E00070F4E901C8DF9A838983CE01DBDF8823B9
:1005F00019F0C1DF9A87898787E392E002C088E516
:1006000092E0DF91CF91F0CECF93DF9364517109E7
:10061000653D734098F444515109453D534070F491
:10062000E901A9DF9A838983CE01BCDF882319F011
:10063000A2DF9A87898787E392E002C08AE792E087
:10064000DF91CF91D1CECF93DF9364517109653D96
:10065000734098F444515109453D534070F4E90109
:100660008ADF9A838983CE019DDF882319F083DF97
:100670009A8789878FE992E002C087EC92E0DF9148
:10068000CF91B2CE0F931F93CF93DF93EB018F8166
:100690009885892B41F009851A856DDF08171907A0
:1006A00011F48FEF0AC0239680E029913991232B12
:1006B00021F08F5F8430C9F7F4CFDF91CF911F9184
:1006C0000F910895CF93DF9364517109653D734095
:1006D00098F444515109453D534070F4E9014BDF12
:1006E0009A838983CE015EDF882319F044DF9A87DD
:1006F000898787E392E002C084EE92E0DF91CF9198
:1007000073CE8091E8049091E904892B61F482E032
:1007100090E02DD32AE032E0FC01318320839093D6
:10072000E9048093E8048091E8049091E904089535
:100730001F93CF93DF93E9019B0124513109253D9C
:10074000334040F49A0124513109253D334008F4E7
:100750005EC005C0693EE3E07E070CF045C0643131
:100760007105A4F4BE018EDF182F8F3F09F455C028
:10077000EBDE9A838983E8DE212F220F330BC20F31
:10078000D31F9C838B838AE293E043C0493E23E0DE
:100790005207A4F0BE0176DF182F8F3F09F43DC049
:1007A000BCDE9A838983B9DE212F220F330BC20F5F
:1007B000D31F9C838B838BE493E02BC04431510582
:1007C00064F5BE015FDF182F8F3F39F19ADF9A83FE
:1007D000898397DF212F220F330BC20FD31F9C83F6
:1007E0008B838AE693E015C0BE014CDF182F8F3F44
:1007F000A1F07CDE9A83898379DE212F220F330BCF
:10080000C20FD31F9C838B8388E093E002C08BE8E8
:1008100093E0DF91CF911F91E7CDDF91CF911F91B1
:1008200008951F920F920FB60F9211242F933F93AA
:100830008F939F93AF93BF938091F7049091F804A7
:10084000A091F904B091FA043091F60423E0230F4B
:100850002D3720F40196A11DB11D05C026E8230FF8
:100860000296A11DB11D2093F6048093F704909386
:10087000F804A093F904B093FA048091F2049091E3
:10088000F304A091F404B091F5040196A11DB11DEB
:100890008093F2049093F304A093F404B093F504CE
:1008A000BF91AF919F918F913F912F910F900FBE6C
:1008B0000F901F9018951F920F920FB60F92112450
:1008C0000BB60F922F933F934F935F936F937F934A
:1008D0008F939F93AF93BF93EF93FF938BEF94E02E
:1008E00093DCFF91EF91BF91AF919F918F917F9199
:1008F0006F915F914F913F912F910F900BBE0F9091
:100900000FBE0F901F9018951F920F920FB60F9267
:1009100011240BB60F922F938F939F93EF93FF9316
:10092000E0910B05F0910C058081E0911105F091AB
:10093000120582FD12C09081809114058F5F8F7324
:1009400020911505821751F0E0911405F0E0E55073
:10095000FB4F958F8093140501C08081FF91EF912B
:100960009F918F912F910F900BBE0F900FBE0F9004
:100970001F901895CF93DF93EBEFF4E01382128270
:1009800088EE93E0A0E0B0E084839583A683B783EC
:1009900088E292E09183808385EC90E0958784875C
:1009A00084EC90E09787868780EC90E0918B808B39
:1009B00081EC90E0938B828B82EC90E0958B848B22
:1009C00086EC90E0978B868B118E128E138E148E90
:1009D000C8E9D5E01C821B821E821D8218861F82F8
:1009E000CADD9A8389838FEF8883DF91CF91089541
:1009F000CF93DF93CDB7DEB72B970FB6F894DEBF5A
:100A00000FBECDBF789484B5826084BD84B581600B
:100A100084BD85B5826085BD85B5816085BD8091C9
:100A20006E00816080936E00109281008091810041
:100A30008260809381008091810081608093810039
:100A4000809180008160809380008091B1008460FB
:100A50008093B1008091B00081608093B00080915C
:100A600091008260809391008091910081608093D9
:100A70009100809190008160809390008091A1000E
:100A800082608093A1008091A10081608093A10089
:100A90008091A00081608093A000809121018260FC
:100AA00080932101809121018160809321018091B7
:100AB000200181608093200180917A00846080937E
:100AC0007A0080917A00826080937A0080917A0027
:100AD000816080937A0080917A00806880937A00A8
:100AE0001092C100E0910B05F0910C0582E080832B
:100AF000E0910705F09108051082E0910905F09159
:100B00000A058FEC808310921305E0910F05F09198
:100B1000100586E08083E0910D05F0910E0580813F
:100B200080618083E0910D05F0910E0580818860E1
:100B30008083E0910D05F0910E05808180688083AF
:100B4000E0910D05F0910E0580818F7D80838824D2
:100B50008A945E012AE0A20EB11C992493941D820E
:100B60001C821F821E821986188605DD9B838A835C
:100B700089828BEA93E027DC8BEF94E030DB892BD2
:100B8000D9F38BEF94E009DB803531F48BEB93E004
:100B90002BDC9092980508C08B3409F0BBC081ED26
:100BA00093E022DC1092980588859985892B09F4B9
:100BB00089C00A851B85DFDC0817190709F082C088
:100BC00083E394E011DC8E010F5F1F4FC12CD12C09
:100BD00076014AE0C701B60113DC87EE93E0F3DB50
:100BE000D80113966D907C90149780DC6816790676
:100BF00019F48BEE93E022C0F80163807480A4DCCA
:100C00006816790619F48AEF93E018C0D801139694
:100C10006D907C90149781DC6816790619F488E051
:100C200094E00CC0F801638074806BDD681679066F
:100C300019F484E194E002C082E294E0D5DBFFEF96
:100C4000CF1ADF0AEF0AFF0A0E5F1F4F23E0C2161A
:100C5000D104E104F10409F0BCCF86E392E0C4DBE7
:100C600080919805813099F48C819D8190939C05A9
:100C700080939B058E819F8190939E0580939D0517
:100C8000888599859093A00580939F0516C0811152
:100C900014C0ABE9B5E0FE0134962D913D918191F0
:100CA00091912817390731F4EA15FB05B1F78EE762
:100CB00094E002C08EE894E097DB86E392E094DB58
:100CC0002BDB4DCF86E360DB8C018EE594E07BDB94
:100CD000C801D5DB87E358DB7C018EE694E073DB4B
:100CE000C701CDDB8FEF9DE3A9E481509040A04088
:100CF000E1F700C000008A819B81DC01ED91FC914D
:100D00000190F081E02D9E012F5F3F4FA701B801B8
:100D100019954ACF82EA94E0CFCFA1E21A2EAA1BFE
:100D2000BB1BFD010DC0AA1FBB1FEE1FFF1FA2179B
:100D3000B307E407F50720F0A21BB30BE40BF50B98
:100D4000661F771F881F991F1A9469F76095709521
:100D5000809590959B01AC01BD01CF010895EE0FE8
:100D6000FF1F881F8BBF0790F691E02D1994CF933A
:100D7000DF938230910510F482E090E0E091A505C8
:100D8000F091A60520E030E0C0E0D0E0309711F10E
:100D90004081518148175907C0F04817590761F43D
:100DA00082819381209719F09B838A832BC0909333
:100DB000A6058093A50526C02115310519F0421717
:100DC000530718F49A01BE01DF01EF010280F3819D
:100DD000E02DDCCF2115310509F1281B390B24301A
:100DE000310590F412968D919C91139761157105C0
:100DF00021F0FB019383828304C09093A605809326
:100E0000A505FD01329644C0FD01E20FF31F819359
:100E10009193225031092D933C933AC02091A30520
:100E20003091A405232B41F420910202309103025A
:100E30003093A4052093A305209100023091010274
:100E40002115310541F42DB73EB740910402509170
:100E50000502241B350BE091A305F091A405E217D0
:100E6000F307A0F42E1B3F0B2817390778F0AC01CD
:100E70004E5F5F4F2417350748F04E0F5F1F5093AA
:100E8000A4054093A3058193919302C0E0E0F0E0B4
:100E9000CF01DF91CF9108950F931F93CF93DF93ED
:100EA000009709F48CC0FC013297138212820091E2
:100EB000A5051091A6050115110581F42081318148
:100EC000820F931F2091A3053091A405281739079D
:100ED00079F5F093A405E093A30571C0D80140E033
:100EE00050E0AE17BF0750F412962D913C91139726
:100EF000AD012115310509F1D901F3CF9D01DA01C9
:100F00003383228360817181860F971F8217930735
:100F100069F4EC0128813981260F371F2E5F3F4F7E
:100F2000318320838A819B8193838283452B29F49B
:100F3000F093A605E093A50542C01396FC93EE93AB
:100F40001297ED01499159919E01240F351FE21727
:100F5000F30771F480819181840F951F0296119699
:100F60009C938E938281938113969C938E93129778
:100F7000E0E0F0E0D80112968D919C9113970097D4
:100F800019F0F8018C01F6CF8D919C9198012E5F9C
:100F90003F4F820F931F2091A3053091A40528177E
:100FA000390769F4309729F41092A6051092A50527
:100FB00002C0138212821093A4050093A305DF914F
:100FC000CF911F910F91089581E090E0F89400C0B7
:040FD000F894FFCFC3
:100FD4000000A7058000000000006203000000007C
:100FE4009803000000002303000000000403000035
:100FF4000000E502000000002501A200EF00CD0082
:10100400E1006B010D0A004A6F79737469636B2008
:101014006D6F76656420746F2049646C6520506F31
:10102400736974696F6E21004A6F79737469636BB5
:10103400206973206E6F7420696E20446561647A40
:101044006F6E6521202D205570004A6F7973746985
:10105400636B206973206E6F7420696E2044656130
:10106400647A6F6E6521202D205269676874004A86
:101074006F79737469636B206D6F76656420746F28
:101084002049646C6520506F736974696F6E212008
:101094002D204C656674004A6F79737469636B2004
:1010A4006973206E6F7420696E20446561647A6F81
:1010B4006E6521004A6F79737469636B20697320CC
:1010C4006E6F7420696E20446561647A6F6E652169
:1010D400202D20446F776E004A6F79737469636BB7
:1010E400206D6F76656420746F2052696768742080
:1010F400506F736974696F6E21004A6F79737469F4
:10110400636B206D6F76656420746F204C65667424
:1011140020506F736974696F6E21004A6F7973741C
:1011240069636B206D6F76656420746F2055702041
:10113400506F736974696F6E21004A6F79737469B3
:10114400636B206D6F76656420746F20446F776ED7
:1011540020706F736974696F6E21004A6F797374BC
:1011640069636B20697320696E20446561647A6FDA
:101174006E6521202D2049646C6500456E7465728E
:1011840020746865206B65793A2000506F73746130
:101194007669204D6F64652072756E6E696E672185
:1011A400004B6F7269737469204D6F6465207275AA
:1011B4006E6E696E6721002E3A200052696768746A
:1011C40020506F736974696F6E004C6566742050AB
:1011D4006F736974696F6E00557020506F73697412
:1011E400696F6E00446F776E20506F736974696F16
:1011F4006E00556E6B6E6F776E20506F73697469F5
:101204006F6E00596F75206861766520656E746530
:101214007265642074686520666F6C6C6F77696EA4
:101224006720706F736974696F6E733A2000436F3F
:101234006F7264696E617465206E583A2000436F62
:101244006F7264696E617465206E593A200053753B
:10125400697463617365206F70656E656400496EBF
:1012640076616C696420636F6D62696E6174696F25
:101274006E00496E76616C6964204B657920656EF9
:1012840074657265642120456E74657220656974A5
:1012940068657220275027206F7220274B27206B08
:1012A40065792066726F6D20796F7572206B657930
:0812B400626F61726421000009
:00000001FF
